:020000022000DC
:1060000000000120E5D002000DD10200C97002009D
:1060100011D1020013D1020015D1020000000000CE
:1060200000000000000000000000000017D1020086
:1060300019D10200000000001BD102001DD1020096
:10604000D19302001FD102008998020081A10200B1
:10605000A59B02001FD10200FD960200F9990200E3
:1060600051A1020061A102001FD102001FD1020054
:106070001FD102001FD102001FD102001FD1020058
:106080001FD10200696B02001FD102001FD1020064
:10609000056C02001FD10200E1C302001FD1020003
:1060A0001FD102001FD102001FD102001FD1020028
:1060B000B19902001FD102000000000000000000A2
:1060C0001FD10200C1990200D19902001FD1020024
:1060D0001FD102001FD102001FD1020000000000EA
:1060E00000000000000000000000000000000000B0
:1060F00000000000000000000000000000000000A0
:10610000000000000000000000000000000000008F
:10611000000000000000000000000000000000007F
:10612000000000000000000000000000000000006F
:10613000000000000000000000000000000000005F
:10614000000000000000000000000000000000004F
:10615000000000000000000000000000000000003F
:10616000000000000000000000000000000000002F
:10617000000000000000000000000000000000001F
:10618000000000000000000000000000000000000F
:1061900000000000000000000000000000000000FF
:1061A00000000000000000000000000000000000EF
:1061B00000000000000000000000000000000000DF
:1061C00000000000000000000000000000000000CF
:1061D00000000000000000000000000000000000BF
:1061E00000000000000000000000000000000000AF
:1061F000000000000000000000000000000000009F
:1062000010B5054C237833B9044B13B10448AFF3F0
:1062100000800123237010BDC0A2002000000000F8
:106220003C51030008B5034B1BB103490348AFF3CE
:10623000008008BD00000000C4A200203C51030003
:10624000154B002B08BF134B9D46A3F5803A002148
:106250008B460F461348144A121A07F093F80F4B57
:10626000002B00D098470E4B002B00D09847002001
:10627000002104000D000D48002802D00C4809F050
:1062800001F906F05DFF2000290000F01FF806F07C
:1062900047FF00BF000008000000012000000000D0
:1062A00000000000C0A2002048B4002085F40200D5
:1062B00055060300034B827C1A701978024807F0D8
:1062C000ABB800BFDCA200208431030070B54FF4EE
:1062D000004190B0002001F057FE18B1384A61210A
:1062E00000F0EFFB01F07EFD3648374C07F094F8E4
:1062F000364806F063FC364B1860204606F0A6FCD4
:10630000344BCDE90243344B0193012100231A465B
:106310000846009106F0BEFC3048314C07F07CF88E
:1063200006F03EFD4FF0A0434FF40002C3F81825DD
:106330004FF08072C3F818254FF00072C3F818258B
:1063400094E80F0004AD103485E80F0094E80F00C6
:1063500008AE86E80F0000231A463146284601F0B1
:106360002DF918B1164A8E2100F0ABFB284600F03B
:1063700061F81C4807F050F81B4B0FCB0CAC84E8BD
:106380000F001322142321461848CDE90C2302F0F4
:10639000F1FE18B10A4A982100F093FB1348144CFF
:1063A00000F046F9134807F037F800F093F9124867
:1063B00007F032F80021204600F0B4F8FAE700BFF9
:1063C000943103009B310300C4980020A89800205A
:1063D00094B30020B8980020DCA20020AD31030067
:1063E00054310300CE310300743103003432030012
:1063F0000B320300E4310300F63103001FB5002225
:106400000091022369460430CDE90132039203F082
:1064100009FD05B05DF804FB38B5054D0A2445F0CB
:1064200001054FF47A40A847013CFAD138BD00BFBE
:106430005032030073B502AC0E2324F8043D374EEE
:1064400021463060FFF7DAFF0546C0B1344A182113
:1064500000F037FB284602B070BD314A2221F7E731
:106460002F4A2C21F4E72E4A3621F1E72C4A40210D
:10647000EEE72B4A4A21EBE7294A5421E8E7FFF7E8
:10648000CBFF022321463068ADF80430FFF7B6FF9A
:1064900005460028E1D1FFF7BFFF4FF480432146B6
:1064A0003068ADF80430FFF7A9FF05460028D7D1C2
:1064B000FFF7B2FF48F2010321463068ADF804301F
:1064C000FFF79CFF05460028CDD1FFF7A5FF4FF44D
:1064D000004321463068ADF80430FFF78FFF0546D2
:1064E0000028C3D1FFF798FF44F203032146306828
:1064F000ADF80430FFF782FF05460028B9D1FFF759
:106500008BFF402321463068ADF80430FFF776FF5B
:1065100005460028B0D1FFF77FFF9BE720A30020AE
:10652000563203002DE9F34107460C4607F0C8F840
:10653000102806463CD85CBB02A9202321F8043D64
:106540001F4B1868FFF75AFF0446C8B9DFF8708080
:106550000025B54238BF7B5DD8F8000028BF202356
:106560009A0862F07F029B0101A98DF804208DF842
:106570000530FFF743FF0446F0B1124A8E2101E0D7
:10658000104A6D2100F09DFA204602B0BDE8F0816E
:10659000012C0FD102A9302321F8043D084B1868C3
:1065A000FFF72CFF04460028D0D0064A7521E9E702
:1065B0000924E9E70B24E7E70135102DC9D1E3E70A
:1065C00020A3002056320300704700007FB5400032
:1065D00003AB8DF80C108DF8150000210B480493C7
:1065E000009102238DF80D208DF8143004AA0123A8
:1065F00000688DF8161002F029FE18B1044A322105
:1066000000F05FFA07B05DF804FB00BF24A3002090
:10661000D032030038B5054D044645F001054FF46E
:106620007A40A847013CFAD138BD00BFC032030010
:1066300007B5234B234A186092E803006B4683E8B2
:106640000300214A2148194603F0CAFC18B1204A28
:10665000432100F036FA80226B216820FFF7B6FF55
:106660006420FFF7D7FF00226B216820FFF7AEFF01
:1066700000226A216820FFF7A9FF0320FFF7CAFF65
:10668000022237216820FFF7A1FF18221B21682072
:10669000FFF79CFF00221C216820FFF797FF0122D3
:1066A0000B210C20FFF792FF6420FFF7B3FF0222BB
:1066B0000A210C20FFF78AFF03B05DF804FB00BF3E
:1066C00024A30020B0320300C9650200C8320300D1
:1066D000D032030008B500F08FFE852804D018B131
:1066E0000B4A2D2100F0EDF9002000F0A1FE00F092
:1066F000DBFB852804D018B1054A332100F0E1F90D
:10670000044A05490548BDE8084002F067BB00BFE0
:1067100025330300B033030084330300CC3303007C
:1067200038B5054D044645F001054FF47A40A847B9
:10673000013CFAD138BD00BFB03403007FB5054637
:106740000E46144672B601F055FE01F077FC0028A3
:10675000FBD13E4806F060FE41F201039D4264D049
:1067600006D8012D12D03146394806F055FE10E00A
:1067700044F201039D425AD044F202039D42F2D1F9
:1067800022886168334806F047FE02E0324806F08E
:1067900043FE02F0BFFE08B902F086FE0023ADF80A
:1067A0000C308DF80E3003A9012319208DF80D301F
:1067B00002F0BAFE03A9182002F0B6FE03A91720C2
:1067C00002F0B2FE192002F06BFF182002F068FF01
:1067D000172002F065FF4FF4FA70FFF7A1FF1920B0
:1067E00002F030FF182002F02DFF172002F02AFFE0
:1067F0003220FFF795FF192002F052FF182002F017
:106800004FFF172002F04CFF4FF4FA70FFF788FF9C
:10681000192002F017FF182002F014FF172002F0D1
:1068200011FFFA20FFF77CFFCCE70C48AFE7A56823
:10683000284602F08DFB23680196009302466368A8
:106840000748294606F0E8FDA3E700BFF43303003C
:10685000913403004C3403000D3403002A34030048
:106860006734030007B502F055FE08B902F01CFEBC
:106870000023ADF804308DF8063001A9012319205A
:106880008DF8053002F050FE01A9182002F04CFEF0
:1068900001A9172002F048FE192002F001FF18207C
:1068A00002F0FEFE172002F0FBFE4FF4FA70FFF735
:1068B00037FF192002F0C6FE182002F0C3FE172091
:1068C00002F0C0FE3220FFF72BFF192002F0E8FE95
:1068D000182002F0E5FE172002F0E2FE4FF4FA70F5
:1068E000FFF71EFF192002F0ADFE182002F0AAFEED
:1068F000172002F0A7FEFA20FFF712FFCCE703698A
:10690000C1688B429DBF8268D21802F1FF3203F149
:10691000FF3394BF501A581A70472DE9F041D0E95F
:1069200002670446F61B406896428846154638447E
:1069300005D906F08DFC3D44E560BDE8F0813246A6
:10694000AD1B06F085FC2A4608EB0601606806F0E0
:106950007FFCF1E72DE9F843C568064689461746EE
:106960004FF000083469B3687068A54228BFE41886
:10697000013C621B5C1BBC4228BF3C46944228BFC2
:10698000144649462844224606F062FCB368254472
:10699000AB4208BF00253F1BA044A144F560E1D1F4
:1069A0004046BDE8F883000010B5114C114AA261C1
:1069B0000223C4E90433104BE361A2644FF4007373
:1069C0000E4A2362E264002310220D49A362E01DF7
:1069D0006362E362A3656365E365226506F0F8FD23
:1069E0000849204606F0F4FD2023A37110BD00BF26
:1069F00098B30020B6340300A8A5002098A5002075
:106A0000BF340300C3340300F8B5184C182300FB4F
:106A1000033503FB00402544C46A012C0F4616468B
:106A200011D003D3022C1BD000240AE02846FFF724
:106A300066FF864205D8324639462846FFF76DFF85
:106A400034462046F8BD2846FFF759FF86423446B3
:106A500028BF0446224639462846FFF75EFFF0E786
:106A60002846BDE8F840FFF775BF00BF98B3002087
:106A700073B50D4B1B7804460D4616460BB9FFF750
:106A800093FF02A8002300F8013D00F0C5FA32464A
:106A900029462046FFF7B8FF04469DF8070000F09E
:106AA000EBFA204602B070BD98B30020FFF77CBF20
:106AB00010B511461C461A460020FFF7D9FF2046A4
:106AC00010BD00B583B002900091019244F2010024
:106AD00071466A46FFF732FE03B000BD094A53789B
:106AE00091780133DBB2994208BF002311789942B3
:106AF0001FBF03705078182303FB002014BF04301D
:106B000000207047A8A7002073B5054602A80024FE
:106B100000F8014D0E4600F07FFA0DF10600FFF778
:106B2000DDFF90B106700A4B9DF8062045605A7053
:106B30009DF8070000F0A0FA24B9064B4FF480122C
:106B4000C3F80021204602B070BD0424F0E700BF66
:106B5000A8A7002000E100E0024B4FF43C6043F0A6
:106B600001031847D0340300F8B51F491F4B002517
:106B7000C1F84051C1F84451C1F84851C1F84C51D5
:106B8000C1F80051C1F804511B684BB3D1F804455A
:106B900017490968641A24F07F442F461A68A242F4
:106BA00009D8A41A15441A7CDE691AB11F74D3E9F6
:106BB00005209047AEB90F4B0F4A197813788B42D6
:106BC00005D10133DBB2022B08BF0023137012780A
:106BD0000A4B43F822500A4B4FF48012C3F80021AD
:106BE000F8BD3346DAE700BF00100140C8A8002016
:106BF000C4A80020C0A80020C1A80020B8A8002078
:106C000000E100E02DE9F74F9C4A9D49137809788F
:106C10009C4D99423CD00133DBB2022B08BF0023CC
:106C2000137099491278994B0F6853F822003B185A
:106C300023F07F4300220B602B68164614469446CF
:106C400013B942B12B6006E0196881420ED902B136
:106C50002B60091A19604FF001082B68DFF834A285
:106C600000930027BEB9DFF834B260E0401A0C444C
:106C7000D968C3F800C0D3F81CE031B13A1922F04A
:106C80007F42C3E90121DE611E4601227346D7E738
:106C90000026B046E1E73446F6697B4A636812682D
:106CA000DFF8FCC1A068991A21F07F41614500F22C
:106CB000A58001442160012222742A680023C4E9CE
:106CC0000133E361002A40F0A2802C60CAE75A1C1D
:106CD0009BF80210D2B291428BF8002004BF002230
:106CE0008BF80020182202FB03B32A6819799C68EC
:106CF000022974D003297ED0012918D1217CB1B991
:106D0000DA6862601A69A2605A69E2609B69A361ED
:106D10005F4B1B78002BC0D06160BEE79C4200F047
:106D200090809946DB69002BF8D1002323749BF8EF
:106D300000309BF801209A42C9D12B682FB9009AE4
:106D4000934202D1B8F1000F43D0002B41D0D3F8C9
:106D500000A0504D4C4BD5F804751C68DFF84481F9
:106D60003E1B98F8003026F07F4603369BB94FF45F
:106D70008033C5F84433C5F80433474B4FF4003231
:106D80004FF00109C3F880211A60C5F80090FFF7A1
:106D9000E3FE88F80090B2452CBF5444A41924F0B7
:106DA0007F44C5F84045D5F80435DB1B23F07F430D
:106DB000E41B033324F07F44A3420AD9D5F80435F9
:106DC000C5F84035FFF7C8FE334B4FF40032C3F827
:106DD00000212F4B00221A7003B0BDE8F08F13463C
:106DE0009146A0E71174D2690123002AFAD1002B41
:106DF0009DD02A609BE700231946F6E7D31A23F0BB
:106E00007F43834234BFC31A0023236053E72168C2
:106E10001368994213D8591A1160E26155E7091AAB
:106E2000D8691A4638B1034618688842F7D3401A21
:106E30001860184613462160E061DC6112E71346D2
:106E4000F2E74C450DD1D3692B6053B90E4801923E
:106E50000121CAF8081003600D4B1970FFF77CFE82
:106E6000019AE1692368C9F81C1011B1086803444C
:106E70000B602B689A4218BF012756E7C0A8002074
:106E8000C1A80020C8A80020C4A80020B8A80020DD
:106E9000B4A800200010014000E100E0A8A70020F5
:106EA000FEFF7F00B5A80020F8B5194E194D1A4F06
:106EB0004FF40033C6F8803001244FF48033C5F816
:106EC0004833C5F808336C60FFF746FEAC60002419
:106ED0003C60FFF741FE114B1C70114B0B221C80D4
:106EE0009A70104B1C60104B1C70104B4FF48012AA
:106EF0001C70E023C6F8802186F814333260C5F890
:106F0000084586F81133D5F804353B602046F8BDB6
:106F100000E100E000100140C4A80020B5A8002056
:106F2000A8A70020C8A80020C0A80020C1A8002051
:106F3000074B9B784BB132B128B10368187C20B95C
:106F400059745A617047072070470820704700BF86
:106F5000A8A700202DE9F7431D4FBB7805460E4634
:106F600090469BB390B304292ED9436973B3437CF5
:106F700002A80024012B00F8014D0CBF8946A14650
:106F800000F04AF80DF10600FFF7A8FDD0B101238B
:106F90000370104B4560D3F80435C0E90498C0E98C
:106FA00002369DF806307B709DF8070000F064F80B
:106FB00024B9094B4FF48012C3F80021204603B0D6
:106FC000BDE8F0830424EFE70724F7E70824F5E79A
:106FD000A8A700200010014000E100E0064A9278D6
:106FE0003AB130B1426922B1002202740221FFF7A6
:106FF0008BBD0820704700BFA8A70020EFF30583D2
:10700000C3F308032BB9EFF31480C04300F0010071
:10701000704701207047000070B50446FFF7EEFF8F
:10702000012803D01049432005F05EFCEFF31086E1
:1070300072B60E4A9068012398B993600C4B0D4DBF
:10704000D3F8801029401160C3F88050D3F8841021
:1070500051604FF0FF32C3F88420207006B962B649
:1070600070BD2370FAE700BFD634030010B40020CF
:1070700000E100E0FC06FFBD10B50446FFF7BEFFCF
:10708000012803D00949512005F02EFC084B9A68CD
:107090005AB154B9EFF3108172B6064A18681060FD
:1070A000586850609C6001B962B610BDD6340300C8
:1070B00010B4002000E100E0024B1B68002198683A
:1070C00006F0BEB9049900201EF0040F1CBFEFF3B8
:1070D00009800AE0EFF308800549064A884201D892
:1070E000904202D88D464FF00000034B1847000035
:1070F0000000012000E00020FD7002002DE9F347B0
:10710000054601F077F900F099FF0028FBD12F4BDD
:107110002F4C9F6A2F4BE41AE408240444F0010426
:10712000002D4ED0AA692C49204601F00BF9EB68DE
:107130000193AB6800932949D5E90023204601F06B
:1071400021F9EB6900932649D5E90423204601F093
:107150000DF91E4BDB6A980703D52249204601F042
:10716000EDF8DFF89490DFF894A000264FF00108C6
:1071700008FA06F33B4206D059F826201AB15146C8
:10718000204601F0DFF801361A2EF1D1390605D577
:107190000E4B15495A6B204601F0D4F83A0405D538
:1071A0000A4B12499A6B204601F0CCF8104B1B6831
:1071B000DB0700D500BE2846FFF754FB02B0BDE850
:1071C000F0870C49204601F0B9F8C2E700ED00E075
:1071D000B8510300505103002B3503004035030024
:1071E00075350300D03503001F3603003F3603001A
:1071F000F0ED00E09D3503005C360300143603001B
:1072000050E8002F0B4640E8003C9CF0000FF7D1FF
:107210001046704750E8003F43EA010240E8002C66
:107220009CF0000FF6D11046704750E8002F02EA9C
:10723000010340E8003C9CF0000FF6D11046704777
:1072400050E8003F03EB010240E8002C9CF0000FE7
:10725000F6D11046704750E8003FA3EB010240E82A
:10726000002C9CF0000FF6D1104670470121FFF76B
:10727000D1BF0021FFF7D9BF10B50446002834D094
:1072800003681BB91A49FF2005F02EFB636823B978
:1072900017494FF4807005F027FBA36823B9144900
:1072A00040F2011005F020FBE36823B910494FF4C8
:1072B000817005F019FB238A23B90D4940F20310B0
:1072C00005F012FBD4E9012321689B1ADBB20A60A6
:1072D000013BDBB2FF2B226802D10020107110BDF0
:1072E0001168481C10600B70F2E70E20F7E700BF32
:1072F000843B030037B5054620B914494FF492701A
:1073000005F0F2FA02A8002400F8014DFFF784FE10
:107310002A68696813688B4210D9591E116013F8E6
:10732000014C2A8AEB6802FB04342A68AB681168B6
:107330005B1A1179DBB2994238BF13719DF80700CF
:10734000FFF79AFE204603B030BD00BF843B030028
:1073500037B50C46054620B9104940F2471005F0F4
:10736000C3FA24B90D494FF4A47005F0BDFA02A880
:10737000002300F8013DFFF74FFE2A681368591CEF
:107380001160EA68A41A2A8AB4FBF2F41C709DF812
:107390000700FFF771FE03B030BD00BF843B030060
:1073A00038B5084C04F108030546002818BF1C46F0
:1073B00023682BB11A6822605B6828469847F7E774
:1073C00038BD00BFD4A8002020B9054B01225A7057
:1073D000FFF7E6BF012802D1014A9070F8E7704735
:1073E000CCA8002020B9034B01225A70FFF7D8BF68
:1073F000704700BFCCA8002038B50B4C237883B968
:107400000A486360A3602361E36001F05FFF054603
:1074100004F0CCFF08B901F06FFF01232370284668
:1074200038BD8525FBE700BFCCA80020C97302004A
:1074300037B51E4C237805461BB91D49E92005F0D8
:1074400053FAA37803F0FF02D3B115B16B680120A2
:10745000984700230DF107008DF80730FFF7DCFD9A
:10746000E3689DF807000133E360FFF705FEE3687A
:1074700023B90F4940F2051005F036FA03B030BDCC
:107480000DF107008DF80720FFF7C6FD25B1226931
:1074900013463BB92A602561E368002BE0D101F077
:1074A00049FFDDE79D42F7D01B68F2E7CCA800203A
:1074B000D43B030013B5154C237823B914494FF47A
:1074C000857005F011FAE36823B9114940F20B10F9
:1074D00005F00AFA02A8002300F8013DFFF79CFD21
:1074E000E368013BE360E36853B904F05FFF18B160
:1074F0000749792005F0F8F901F052FF0023A37045
:107500009DF80700FFF7B8FD02B010BDCCA8002021
:10751000D43B0300012813B509D003D303281BD0A3
:1075200002B010BD134B0122C3F88020F8E702A877
:107530000023114C00F8013DFFF76EFD23780BB9D5
:10754000FFF75AFFE3689DF807000133E36001236A
:10755000A370FFF791FDE3E7074B1B7823B90749B9
:1075600040F2452005F0C0F901F0C6FEFFF7A2FF8A
:10757000D6E700BF00E100E0CCA80020D43B030028
:107580007FB503788DF804304368029383688DF8E3
:107590000C30C368049303698DF81430054A064B18
:1075A00001A853F8213052F82110984707B05DF830
:1075B00004FB00BFE0A80020ECA80020F0B50646C0
:1075C000944616F8047B194A42F827C0184A42F834
:1075D0002730184B0C460FCB85B06D4685E80F0061
:1075E00023788DF8003063788DF80130A3788DF81A
:1075F0000230E3788DF8033023798DF80530637914
:107600008DF80630A3680293237B8DF80C30BCF113
:10761000000F637B8DF80D30074A3B4608BF002200
:107620002946304602F0F0FA05B0F0BDECA8002083
:10763000E0A800202C3C0300817502001FB50378F0
:107640008DF8003003798DF8043043798DF80530DA
:1076500083688DF80630C3688DF80730036902939C
:1076600043690393054A064B684653F8213052F8A4
:107670002110984705B05DF804FB00BFF8A8002072
:1076800000A9002002494FF4F37005F02DB900BFA6
:10769000463C03001F2810B5044601D9FFF7F2FF4E
:1076A000012303FA04F44FF0A043C3F8084510BDCA
:1076B000024B4FF4807043F001031847403C030035
:1076C0002DE9F14F924690F80080364A42F828A002
:1076D000354A42F828304B7B81460C467BB30B6819
:1076E0004FF0A04503F5E07340F20C6245F823200B
:1076F0004B6803F5E073002645F823200868FFF780
:10770000C9FF6068FFF7C6FF236803F5E07340F226
:107710000D6245F82320636803F5E0734FF0010B19
:1077200045F82320FFF7C4FF67681F2F01D9FFF733
:10773000A9FFD5F81035FB40DB070ED506BBBAF123
:10774000000F1A4A434608BF0022214609F10400EF
:1077500001B0BDE8F04F02F0BFBD27681F2F01D96F
:10776000FFF790FF0BFA07F7C5F80C75FFF7A0FFBE
:1077700001362068FFF78EFFFFF79AFF092ED3D15D
:1077800065681F2D01D9FFF77DFF4FF0A04201234F
:10779000AB40C2F80C35FFF78BFF6068FFF77AFF4C
:1077A000CDE700BF00A90020F8A800203D76020028
:1077B0001FB503788DF800304368019383688DF816
:1077C0000830C3680393054A054B684653F82130D7
:1077D00052F82110984705B05DF804FB08A9002075
:1077E0000CA900201FB503788DF800304368019381
:1077F00083688DF80830C3680393054A054B6846D3
:1078000053F8213052F82110984705B05DF804FB79
:1078100008A900200CA90020F0B5194B067891F8B2
:107820001DE043F82620174B94460A6943F82620AA
:10783000154B03F806E00C4607460FCC89B06D46A1
:107840000FC594E80F0085E80F000496BEF1000F05
:107850000AD0BCF1000F0D4A694608BF0022381D4E
:1078600003F0C2FB09B0F0BDBCF1000F084A694645
:1078700008BF002207F10C0003F002F9F2E700BF95
:107880000CA9002008A900201CB40020B177020038
:10789000E577020010B5044618B90649312005F015
:1078A00023F8A2682AB163692168206998470023F8
:1078B000A36010BD893C03000EB433B5059D04469A
:1078C00018B91249422005F00FF863691BB90F4936
:1078D000432005F009F823681BB90C49442005F042
:1078E00003F863681BB90949452004F0FDFF3DB169
:1078F00002AA06AB42F8043D2946204600F06EF885
:1079000002B0BDE8304003B0704700BF893C0300BF
:10791000826830B40468551C8560A154D0E90132F6
:107920009A4202D330BCFFF7B5BF30BC70470000AD
:107930002DE9F84F9946DDE90A4317468246884605
:107940000A460126BA420FD24E4538BF4E4613F0C2
:10795000010B01D164B900240125B9F1010F1AD935
:1079600009F1FF397D43F8E7B2FBF7F20136E9E7A9
:107970009B070ED5B9F1000F0CBF30252025A6427C
:10798000EAD2013C29465046FFF7C2FF002CF6D14F
:10799000E1E72025F3E7B8FBF5F39F42E2D9DFF8F2
:1079A0003890B8FBF5F3504619F8031005FB13881F
:1079B000FFF7AEFFB5FBF7F5002DF2D1BBF1000FDD
:1079C00002D00CB1A64201D3BDE8F88F2021504669
:1079D000013CFFF79DFFF4E7CF3C03002DE9F74F93
:1079E0000E469046054620B9AC494FF4A27004F00B
:1079F0007BFF6B6923B9A9494FF4A37004F074FFAE
:107A00002B6823B9A54940F2471004F06DFF6B685D
:107A100023B9A2494FF4A47004F066FF002E00F0D1
:107A20003A8116F8011B002958D0252940F0D18051
:107A3000002702E047F001071646324612F8013BE4
:107A40002D2BF7D0302B04D02B2B05D147F004077A
:107A5000F2E747F00207EFE700242A2B06F10102C4
:107A60001BD1D8F80030191DC8F800101B68164645
:107A70001C4433782E2B1CD101364FF0000A3146BE
:107A800011F8012BA2F13000092814D80A2303FBB6
:107A90000A23A3F1300A0E46F1E712F8013CA3F1E4
:107AA00030010929E5D80A2101FB0434303C16468F
:107AB000D3E74FF0000A324612F8011B01F0FB0039
:107AC00068281646F8D0692916D054D8582970D09D
:107AD0000ED825297DD03378002BA2D12B7B002B0B
:107AE00000F0D980284603B0BDE8F04FFFF7D2BEC2
:107AF000632968D06429EED1D8F80020111DC8F898
:107B00000010D2F8009089EAE972A2EBE9724FF016
:107B1000010B092A61DCD34538BFD3462CB1B9F13A
:107B2000000F01DB790700D5013CBA0702D5BAF195
:107B3000000F04D0FB0702D4002C54D10024B9F16B
:107B4000000F58DAC9F100092D212846FFF7E0FEA1
:107B500007F00302022A05D1BAF1000F02D1002C6E
:107B60004DD10024CDE9004753460A224946284614
:107B7000FFF7DEFEAFE7732954D016D87029AAD1DB
:107B8000D8F800301A1DC8F80020302128461C689B
:107B9000FFF7BEFE78212846FFF7BAFE0022082331
:107BA000CDE9003221461022E1E775292FD078294E
:107BB00091D1D8F800100A1DC8F80020CDE900477F
:107BC000534610222CE0D8F800301A1DC8F80020C7
:107BD00019782846FFF79CFE7DE70A230BF1010B7D
:107BE00092FBF3F295E7A345A9D220212846013C58
:107BF000FFF78EFEA0E77807AAD52B21A5E7A345BE
:107C0000B0D230212846013CFFF782FEA7E7D8F822
:107C10000010CDE900470A1DC8F8002053460A228B
:107C20000968A4E7D8F800301A1DC8F80020F90741
:107C3000D3F8009012D54F46A7EB090B17F8011B9C
:107C400041B9A345BFF447AF20212846013CFFF7C7
:107C50005FFEF6E72846FFF75BFEEDE7B9F1000FA0
:107C600017D0484605F02CFD0746BC4200D954B950
:107C700009F1FF3919F8011F00293FF42CAF2846FC
:107C8000FFF746FEF6E720212846013CFFF740FEBD
:107C9000EBE74F46E9E703B0BDE8F08FDF3C0300B8
:107CA0007047000007B5044B0093044A402300F0DE
:107CB00032F803B05DF804FBC17C020011A900207A
:107CC0002DE9F84389461446B2B10F4B0F4E0325F8
:107CD000002743F00108224609EB07010020FEF7C8
:107CE00093FE0744241A48B933782BB14FF47A40F5
:107CF000C047013D02D13570BDE8F88301233370E0
:107D0000002CE8D1F8E700BF403D030010A9002097
:107D10007047FEF7CBBEF0B595B01C461646084638
:107D20000D4600F032FD1A9B0D93CDE90864002446
:107D30002346082205A928460A948DF82C400C9465
:107D400000F04CFD079B0293BDF81830ADF80C30E5
:107D5000BDF81A30ADF80E309DF814308DF8114092
:107D600003F00302012A1DD1BDF81440059EC3F3A0
:107D7000C203C4F383148DF81030A20008230EA9A7
:107D8000284600F02BFDC6F3952608AB009322464B
:107D900002AB0EA9304600F09DFB284600F0F9FC2E
:107DA00015B0F0BD022AF8D1BDF81640C3F3C203E6
:107DB000A4098DF810300827082C264628BF08266D
:107DC0003B4632460EA9284600F008FDA41B08AB2E
:107DD00002AA31460EA8374400F0E0FB002CEBD19C
:107DE000DBE7000008B5FFF794FF0421064800F028
:107DF000D7FA002803DA0549412004F075FD044B49
:107E000001225A7108BD00BF70520300543D0300A7
:107E1000EC980020037813F0040216D003F003035B
:107E2000012B03D0022B09D0012070470A6800887B
:107E30000232C0F3831002440A60F5E70B684288FF
:107E4000023303EB92130B60EEE71046704700001D
:107E50002DE9F04F89B00646871C08A8484C0092CF
:107E600000230D4600F8113DFFF7D6F823682B607C
:107E7000D4E901231344226801339B1A04F21C48FD
:107E800004F5836B04F21449BB421AD3009A002311
:107E9000002A6DD0012262F3010343F0040366F36C
:107EA00089132168A2689DF80F000A4003320F442D
:107EB00044F822302760FFF7DFF8012009B0BDE861
:107EC000F08F01214046FFF7BBF95846FFF7CEF986
:107ED0000DF1200A4846FFF7C9F960684AF8100D0D
:107EE000A5682840033004EB80005146FFF792FF5D
:107EF00002460498002AF4D105EA000304EB830348
:107F0000811CDB6805930130054004EB850503F017
:107F10000303012B0491ED6823D0022B08D01949EB
:107F200001924FF4BF7004F0DFFC019A154607E0A0
:107F3000BDF816309B0903332D0C01EB930304931A
:107F40004846FFF796F908B1049B6360294640460E
:107F5000FFF776F9D4E901231344226801339B1A11
:107F600092E7BDF81430C3F383132D0C0B44E6E7FE
:107F7000022262F3010343F0040366F39F5390E788
:107F800024AA0020C33D03000B4B0C48FF2210B570
:107F90009A600022C3F81824C3E90022C3F814240D
:107FA000012283F8202400F0A9FB044610B90448FC
:107FB00000F040FC204610BD24AA0020E851030038
:107FC0001C3E030030B50A4C71B10A4A0A49121B23
:107FD000D20800239A4201D1002030BD31F823504D
:107FE000854202D00133F5E7034654F83300F4E745
:107FF00050510300E8510300C0A20020094B013991
:1080000003EBC000032909D8DFE801F00A020406E7
:10801000042070470079704740797047002070470E
:108020000220704750510300034BD3E90030C31ABC
:1080300058425841704700BF24AA00202DE9F04360
:1080400087B0FFF7F1FF0646002840F0FC807F4D27
:10805000C5F81804BFF34F8F6868AC6806AF47F8DF
:10806000100D2040033005EB80003946FFF7D2FEAB
:10807000029B18B1D5F81824002A5FD004EA030245
:10808000991C013305EB8202234005EB8303D26880
:10809000DB68049302F00303022B0392029162D186
:1080A000BDF80E306A484FEA9318B8F1500FC14638
:1080B00028BF4FF0500969F38F1309F10801ADF89B
:1080C0000E3000F033FB0746002800F0A78000F0D8
:1080D0005CFB03A900230822384600F069FB0299E3
:1080E00024EA01060136B600B14535D95FFA89F9AF
:1080F0007EB3F6B2A9EB0609214003315FFA89F499
:10810000B146544E05EB810108234A46384600F03B
:108110004FFB36B109F1080322463146384600F0DC
:1081200047FB029B08F1030803EB98030293D5F881
:108130001834002B4BD1D5F810445BE02A689A42E2
:1081400004D86A60304607B0BDE8F08304EA030053
:1081500088E740493446D7E72140033108234A469F
:1081600005EB8101DAE7012B58D1BDF80C30384816
:10817000C3F38311062928BF062161F38913023155
:108180008900ADF80C3000F0D1FA0746002845D040
:1081900000F0FBFA0023082203A9384600F008FB90
:1081A0000026BDF80C20C2F38312B31C96424FEA9E
:1081B0008303BCD202994A1C21400331029205EB91
:1081C00081010422384600F0F3FA0136E9E7384627
:1081D00000F0DFFAFFF728FF80F00100C6B2B1E738
:1081E000E3685B7923B1236839461B6820469847CA
:1081F000E3681C68002CF3D1384600F0CAFA06A8E0
:1082000000F8114DFEF708FFD5F818340BB9029BA2
:108210006B609DF80700FEF72FFFDBE7D5F81044F1
:1082200054B90D4B0D480E49C01AC008000440F067
:10823000020000F083F8CDE7236820469B6898474A
:10824000E3681C68ECE700267CE700BF24AA002056
:10825000E851030030AA002050510300A851030048
:10826000283E03002DE9F74F2F4C80460F469146DC
:1082700001A9012218469B46D4F808A0FFF7E8FDA3
:1082800000283DD0019D0026A91C5E4506EB010299
:1082900040D100212548FEF7B3FF80F3100B244B9B
:1082A000244A4FEA18499B1AB9EBD30F04D3224949
:1082B00040F2A31004F018FB6B1C03EA0A0304EB62
:1082C000830349EA0B42DA6005EA0A03033301211A
:1082D00014F8232068F3C50204F8232034F823207F
:1082E00066F3891224F8232054F8232067F39F2291
:1082F00044F8232061F301026FF3820204F8232083
:1083000094F820341BB1FFF799FE0028FBD103B08D
:10831000BDE8F08F0AEA020204EB820259F8263027
:10832000D3600136B1E700BF24AA002040AE002090
:10833000E851030050510300C33D030000231A46D7
:10834000FFF790BF13B502AC012344F8042D224679
:10835000FFF788FF02B010BD07B5CDE90023022367
:108360006A46FFF77FFF03B05DF804FB1FB5CDE958
:108370000123069B039301AA0323FFF773FF05B0B4
:108380005DF804FB1FB5CDE90023069B0293079B14
:1083900003936A460423FFF765FF05B05DF804FB0D
:1083A00030B5134AD2F810440023214651B9C468AD
:1083B0002371D2F810445CB9C2F81004C26811608D
:1083C000184630BDC9680D799D420AD00968EDE7AD
:1083D000E468C16824680C60D2F81024D268106088
:1083E000EEE701330A2BE0D14FF0FF33E8E700BF9F
:1083F00024AA002038B5094A0123D2F8104482F893
:1084000020341D4604B938BDE3685D7123682046F9
:108410005B689847E3681C68F4E700BF24AA002063
:1084200010B5037A052B0C460FD0437A23B1084AC6
:1084300008492046FFF740FA07492046FFF73CFA73
:108440002046BDE81040FFF725BA002AF8D0F3E730
:10845000733E0300783E0300983E030073B5C38863
:1084600004460D4633B1144A00921449144A284672
:10847000FFF722FA217A05291CD0637A4BB1A08834
:10848000FFF7BCFD0F4B104953F820202846FFF79B
:1084900013FA227A0D4BA08853F822600021FFF7CF
:1084A00091FD0B4903463246284602B0BDE87040B4
:1084B000FFF702BA02B070BD733E0300833E0300B3
:1084C0007B3E0300403E0300783E0300A83E0300CD
:1084D0009B3E03002DE9F04385B01F460C9D002311
:1084E00006460C46904695F80C902B732946384664
:1084F000FFF7B4FFB8F1060F09D8DFE808F004125F
:10850000181F2833400031462846FFF7D5F90022CE
:1085100029463846FFF784FF85F80C9005B0BDE882
:10852000F083226831462846FFF7C6F9EFE7D4E921
:10853000002331462846FFF7BFF9E8E7A368009318
:108540003146D4E900232846FFF7B6F9DFE7E368B0
:108550000193A36800933146D4E900232846FFF72E
:10856000ABF9D4E723690293E3680193A36800930E
:108570003146D4E900232846FFF79EF9C7E763692F
:10858000039323690293E3680193A3680093314640
:10859000D4E900232846FFF78FF9B8E708292DE929
:1085A000F84F80460E4617461C4635D8002593F8EE
:1085B0000C901D7319461046FFF750FFDFF88CA092
:1085C000DFF88CB0AE4229D918F80520594620466C
:1085D000FFF772F90135082DF4D11A49DFF874B0AC
:1085E0002046FFF769F94FF0000A564524D918F8DC
:1085F0000A507E2D17D92E2259462046FFF75CF9E6
:108600000AF1010ABAF1080FEFD1012221463846DA
:10861000FFF706FF84F80C90BDE8F88F514620461E
:10862000FFF74AF9D6E704F0BDFD2844427812F07E
:10863000970FE0D02A46DFE703492046FFF73CF9D1
:10864000DEE700BF6E3E03006C3E03006A3E03009F
:10865000643E0300703E03002DE9F74F99469DF8F4
:108660003030019388461746054618B92249B6208E
:1086700004F03AF9EA8895F805B00BFB02FBABF180
:10868000040BCB4503D81C49C42004F02DF93E68E7
:10869000B5F806A006EB09025A4509F1040188BFA6
:1086A000ABEB0906B1FBFAF43E600AFB141144B9C6
:1086B000AAEB0107B74228BF37462EB903B0BDE881
:1086C000F08F2D68013CF2E7019A043108EB0403B6
:1086D000681872B101463A461846F61B04F0B8FD18
:1086E000B2453C442D6857464FF0000128BF37463D
:1086F000E3E73A461946F0E7073F0300FEF7BCBD43
:10870000F8B546790146721E0546002393422D684E
:1087100003D30024A64202D8F8BD0133F6E70F6860
:108720002846FEF715FE01343946F3E72DE9F843F4
:10873000CD1C068A0746FEF7DDFD043E354404469F
:10874000B5FBF6F5F0B14FF48073EDB28380C680CF
:10875000013D076081464FF00008A84512D2384617
:10876000FEF7C8FD064648B163790133637108F12D
:108770000108C9F8000007608146EEE72046FFF7D0
:10878000BFFF34462046BDE8F88301210430FEF7E0
:1087900057BD10B5012104460430FEF75CFD10F012
:1087A000FF0F04D12046BDE81040FFF7A9BF10BD60
:1087B00030B585B0144604AA002542F8044D009552
:1087C000FFF74AFF039BA34203D00349F62004F0BE
:1087D0008BF805B030BD00BF073F030030B585B052
:1087E000144604AA012542F8044D0095FFF734FF12
:1087F000039BA34204D003494FF4807004F074F843
:1088000005B030BD073F0300064B10B500241C70B7
:10881000054B1C60BFF35F8F0449054800F032FA36
:10882000204610BDE8AE0020ECAE0020583F03000B
:10883000E0AE002082680023936082681361826842
:1088400053618268D36082685360826813607047A6
:10885000026813685268934291BFD01A8068013051
:10886000801888BFC01A704738B50C46054618B93D
:108870000449772004F038F8AB68A3428CBF601C31
:10888000002038BD6D3F03002DE9F84303681D68E3
:108890005C68A54284BF836801331746884694BF4D
:1088A000641B5C1BC2684168BC42064605FB0211A2
:1088B0000CD37A43404604F0CBFCB3683D449D4260
:1088C00088BF002533681D60BDE8F88304FB02F90A
:1088D0004A46404604F0BCFCF26871683C1B6243A7
:1088E00008EB090004F0B4FC33681C60ECE70000FE
:1088F00038B5044618B907498A2003F0F5FF236804
:1089000020461D685968FFF7AFFF431B5842584186
:1089100038BD00BF6D3F03002DE9F3410D4604460D
:1089200018B92E49952003F0DFFF1DB92B49962079
:1089300003F0DAFF02A8002300F8013DFEF76CFB0C
:108940002046FFF7D5FF804610B1237C002B3BD19A
:10895000276820467E687968FFF786FF7860B8F15F
:10896000000F05D0276820463968FFF77DFF386083
:10897000E2686068531E072B20D8DFE803F004107C
:108980001F141F1F1F182B7883552046FFF760FF09
:1089900023689A68824200D29860002415E02B88F0
:1089A00020F81630F1E72B6840F82630EDE7D5E9DE
:1089B000002300EBC600C0E90023E6E7294606FBDA
:1089C000020004F045FCE0E704249DF80700FEF7F0
:1089D00053FB204602B0BDE8F08100BF6D3F0300AD
:1089E00073B50E461446054620B9124940F2D5101B
:1089F00003F07AFF26B90F494FF4EB7003F074FFD0
:108A0000A4B102A8002300F8013DFEF705FB2846AB
:108A1000FFF71EFF844228BF0446224628463146FF
:108A2000FFF732FF9DF80700FEF726FB204602B055
:108A300070BD00BF6D3F030037B5044620B90B4938
:108A400040F2EF1003F050FF02A8002500F8015D8E
:108A5000FEF7E2FA0C222946206804F093FC9DF808
:108A60000700FEF709FB03B030BD00BF6D3F0300F8
:108A700013B5044620B90B4940F2FD1003F034FF52
:108A800002A8002300F8013DFEF7C6FA2046FFF7D2
:108A9000DFFE04469DF80700FEF7EEFA204602B01E
:108AA00010BD00BF6D3F030010B5044620B9064954
:108AB00040F20A2003F018FF236818685B68C31AA5
:108AC0005842584110BD00BF6D3F03002DE9F341EE
:108AD0000C469046054618B92549D92003F004FFF5
:108AE0001CB92349DA2003F0FFFE02A8002300F896
:108AF000013DFEF791FA2846FFF7D6FF002834D152
:108B00002F683E68B8F1000F04D139682846FFF796
:108B1000ABFE3860EA686968531E072B1FD8DFE890
:108B200003F0040F1E131E1E1E178B5D23700024FE
:108B30009DF80700FEF7A0FA204602B0BDE8F081DC
:108B400031F816302380F2E751F826302360EEE743
:108B500001EBC601D1E90023C4E90023E7E706FBE6
:108B60000211204604F074FBE1E70524E0E700BFB2
:108B70006D3F030038B5044620B9054940F2122084
:108B800003F0B2FE2046A568FFF772FF281A38BD31
:108B90006D3F03002DE9F843044616468846FFF76B
:108BA000E9FF2368A5685A680135AD1A8146E26875
:108BB00058686368B54202FB003017D372434146E0
:108BC00004F046FB2268A168536833448B4296BF89
:108BD00053680026F61856602046FFF739FE2368D2
:108BE0009A68824238BF9860BDE8F88305FB02F7B7
:108BF0003A46414604F02CFBE2686068751B6A4304
:108C000008EB070104F024FB2368B1455D60E3D263
:108C1000256820466968FFF727FE2860DCE700002A
:108C200073B50E461446054620B915494FF4B47085
:108C300003F05AFE26B9124940F2691003F054FEBF
:108C4000A4B102A8002300F8013DFEF7E5F92B7C52
:108C50007BB9AB689C4228BF1C4628462246314659
:108C6000FFF798FF9DF80700FEF706FA204602B0CE
:108C700070BD2846FFF77EFF844228BF0446ECE71C
:108C80006D3F030038B50D46044618B90849502019
:108C900003F02AFE1DB90649512003F025FE256088
:108CA0002B6863606A68934204BF0023636038BD29
:108CB000BB3F030010B5044618B90B49632003F00D
:108CC00013FE23681BB90849642003F00DFE636896
:108CD00043B1226891680B4463605268934204BFB9
:108CE0000023636010BD00BFBB3F030043691B68E6
:108CF000DB6803B11847704710B4074C0378E35C96
:108D000023B104305DF8044B02F07ABA0C305DF800
:108D1000044B01F0B9BF00BF1CB4002010B4074CD5
:108D20000378E35C23B104305DF8044B02F0DCBA55
:108D30000C305DF8044B02F017B800BF1CB40020E3
:108D400070B50578012D06460C4603D029D3022DB7
:108D500025D070BD4B69027A1B6841685B68186852
:108D6000FFF75EFF337A834205D903212046BDE831
:108D70007040FFF7BBBF29462046FFF7B7FF636986
:108D80001B689B6820465A7A5968FFF7C7FF00287E
:108D9000DFD011499B20BDE8704003F0A5BD2946F6
:108DA000E4E74B691B685A689D68566800212046B5
:108DB000FFF79CFF2A7A29683046FFF711FE00284A
:108DC000C7D0C2B229682046FFF796FF0028C0D05E
:108DD0000149B220DFE700BFBE400300F0B50E46F8
:108DE00089B01546044608B101B11AB94449BF20FB
:108DF00003F07AFD63691B68002B7ED12B783BB1B1
:108E00006B680BB1AB681BB93D49C92003F06CFD21
:108E100031462022684604F01BFA2B780494991EF0
:108E20004A424A41002B8DF81D206946354A2046AA
:108E300008BF0022FEF7F0FC0646002838D163691F
:108E40001D6063691B685B6843B15868FFF7F4FDF8
:108E500063691B685B681868FFF7EEFD656915F1CB
:108E6000080F03D12849722003F03EFD0023AB60B8
:108E7000BFF35F8F67693A1D1D4603D122497220F7
:108E800003F032FD7D60BFF35F8F636903221A73C5
:108E9000009B013301BF6269137B23F0020313734C
:108EA000019A6369013206D11A7B22F001021A731A
:108EB000304609B0F0BD1B681B78022B09D16369ED
:108EC0001B689B6820465A7A5968FFF727FF0646B9
:108ED000EEE723780D4AD35C53B10D4940F25A2096
:108EE00003F002FD63691B681B78002BE7D1DFE705
:108EF00004F10C0001F0CEFFF4E78526D8E700BFAF
:108F0000BE400300418D0200244003001CB4002039
:108F1000704003000D4930B5A1F5947202259142CD
:108F200001D800200EE08B1ADB1093FBF5F302EB67
:108F3000C30452F83330834205D802D204F1080248
:108F4000EDE7606830BD2146E9E700BF4C42030011
:108F500008B5FFF7DFFF024B002808BF184608BD21
:108F60000E410300C0B2002348700B707047000030
:108F700070B50D46044618B90849712003F0B4FCD9
:108F800023681A6812683AB11A681B6851681B682E
:108F90002846BDE87040184770BD00BF0646030074
:108FA000F0B5044687B018B92D49372003F09CFC72
:108FB0002368187E1A68C0B207B296684FEAC70CD9
:108FC00006EB0C0256F8376051791779927912F056
:108FD000010F4FEA510501F0010139D0002937D1C5
:108FE000D3F800E09EF80CE00130704530DAD3F899
:108FF00000E00CF10800DEF808C084449CF805C0CD
:10900000B5EB5C0F24D11A6891680A1851F800C0BA
:10901000187E517992F804E09279013011F0010F35
:109020004FEA4212C0B20CBF0321022102F020021B
:1090300018768DF8041004F10C0001A98DF8055084
:10904000CDE9027ECDE9046C01F0A2FA07B0F0BDD3
:1090500052014FF0000C02F02002E646E9E700BFA3
:10906000064603002DE9F74F0E46044618B9294974
:10907000872003F039FC2568DFF89CB04FF000082A
:1090800002A800F8018DFDF7C7FF16B923681B6819
:1090900043B9002229466068FFF718FD90B3C5F870
:1090A000008000269DF80700FDF7E6FF7EB32B68E1
:1090B0001B694BBB2F1D10223946686904F096F8D6
:1090C000A8B104F10C0A504604F1080901F004FAB1
:1090D00023465A4639464846FEF7F2FA18B10D497A
:1090E000B42003F001FC504601F0ACF96F6185F843
:1090F00018802046FFF754FF014640B12046FFF795
:1091000037FFBDE70126CDE72B681F69D3E703B022
:10911000BDE8F08F064603001D91020038B50C46ED
:10912000054618B91249D22003F0DEFB23681B68FC
:109130001BB90F49D82003F0D7FB297871B92268F1
:10914000137E10680133007BDBB2984207D9137697
:109150002046FFF725FF014608B938BD0321204608
:10916000FFF706FF20460121BDE83840FFF77ABF30
:1091700006460300F8B50E46044620B919494FF4D7
:10918000847003F0B1FB636823B9164940F20910FB
:1091900003F0AAFB63689B6823B912494FF48570FA
:1091A00003F0A2FB26B90F4940F20B1003F09CFB21
:1091B00023460D4A314604F10800FEF781FA0746BE
:1091C00070B904F10C0001F03DF923681F6096E8C6
:1091D0000F002568043585E80F0023681A1D5A61C1
:1091E0003846F8BD064603001D91020037B5054616
:1091F000019120B9144940F22D1003F075FB019B39
:1092000023B911494FF4977003F06EFB019B9B68E3
:1092100023B90D4940F22F1003F066FB019B1B7B25
:1092200023B909494FF4987003F05EFB01A96868FF
:10923000FFF772FB044618B901462846FFF712FFF4
:10924000204603B030BD00BF064603002DE9F041C3
:1092500086B0884617461E460C9C054620B919491B
:1092600040F24F1003F040FB27B916494FF4A870A5
:1092700003F03AFB26B9134940F2511003F034FBD6
:109280000023ADF8003001238DF8003001A90E4B0A
:1092900001932846CDF808D003978DF81060CDF8DB
:1092A0001480FFF7A3FF20B106B0BDE8F08104B140
:1092B000A0479DF80030002BF9D19DF80100C0B205
:1092C000F2E700BF06460300658F020010B50446B2
:1092D00018B90749A02003F007FB064B187920B9FD
:1092E00001221C601A71587110BD8520FCE700BF77
:1092F0005A460300F0AE002008B50B4B1B791BB992
:109300000A49B92003F0F0FA094B1A68D2075FBF87
:10931000E02283F8002301221A604FF080430122EB
:10932000C3F8182508BD00BFF0AE00205A46030060
:1093300000E100E037B5144B1B791BB91349E62057
:1093400003F0D2FA124B00221A601B680193019BB2
:109350004FF080430222C3F804230E4AD06840F045
:109360008073D3600C4B1C6844F0010119605D6888
:109370005968491BB1F50A5FFAD31C60074BD060EE
:1093800001221A6003B030BDF0AE00205A4603003F
:1093900004010040F0ED00E0001000E00800004093
:1093A00008B5084B1B791BB90749F32003F09CFA59
:1093B000064B01221A604FF08042D2F81834DB03CA
:1093C000FBD408BDF0AE00205A4603000C0000405C
:1093D00007B5154B1A687AB100221A601B68009312
:1093E000009B4FF080430122C3F808230F4B5879AC
:1093F00010B95A711B6898470D4B1A6882B1002248
:109400001A601B680193019B4FF080430222C3F84E
:109410000823064B1B68012003B05DF804EB1847D6
:1094200003B05DF804FB00BF00010040F0AE002077
:109430000401004000F1804000F5C040002382B0EC
:10944000036003680193019B02B07047054B4FF026
:10945000FF32072843F8202084BF1B1883F84820D8
:10946000704700BFF8AE002002494FF4F37003F0DC
:109470003BBA00BF463C03001F2838B504460D46E2
:1094800001D9FFF7F1FFA00000F1A040D0F80037AC
:1094900023F44033C0F80037D0F8003743EA0543DF
:1094A000C0F8003738BD000010B5164C94F858309D
:1094B00033BBFF21E2180133202B82F83010F9D1A1
:1094C0000021C8B2FFF7C2FF01310C29F9D10422F3
:1094D00000210D4803F056FF0C4BE02283F80623D1
:1094E00040221A604FF4BE70FFF7A4FF084B4FF004
:1094F0000042C3F80423012384F85830002010BD33
:109500000820FCE7F8AE00204CAF002000E100E0AE
:1095100000600040034B93F85800003018BF012052
:10952000704700BFF8AE00201F2870B504460D46F6
:1095300004D941494FF4987003F0D6F93F4E96F89C
:109540005830012B04D03C4940F2311003F0CCF9E3
:1095500025B939494FF4997003F0C6F9331993F9D5
:109560003020013265D1AA78002A54D0002356F861
:10957000231001314FEA830248D1311902F18042B0
:1095800081F83030002102F5C04246F82310D2F8AD
:1095900010052B78697820F498101B04090520F435
:1095A000F85001F4801103F44033C2F810050B4366
:1095B0002102D2F8100501F4F8510B430343C2F81D
:1095C00010356B78012B4FF0010528D11F2C01D9E4
:1095D000FFF74AFF4FF0A043A540C3F808551F2CE2
:1095E00001D9FFF741FF04F5E0724FF0A0430321DA
:1095F00043F82210E2081249012304F0070403FA99
:1096000004F48B5C1C438C54002003E00133082BD2
:10961000ADD1042070BDFE2283F83020D1E71F2C8D
:1096200001D9FFF721FF4FF0A043A540C3F80C5527
:10963000D5E70820EEE700BFAD460300F8AE0020F6
:109640004CAF00201F2838B5054604D912494FF405
:10965000BE7003F049F9114C621992F930200132C1
:1096600004D10D4940F27D1003F03EF9631993F8DF
:109670003030072B04D808494FF4BF7003F034F999
:109680001F2D01D9FFF7F0FE012303FA05F54FF076
:10969000A043C3F8085538BDAD460300F8AE00201E
:1096A0001F2838B5054604D912494FF4C37003F09A
:1096B0001BF9114C621992F93020013204D10D4985
:1096C00040F2871003F010F9631993F83030072B3C
:1096D00004D808494FF4C47003F006F91F2D01D9CE
:1096E000FFF7C2FE012303FA05F54FF0A043C3F8CC
:1096F0000C5538BDAD460300F8AE00202DE9F04F03
:1097000087B000245B4A5C4E5C4D039401211368D2
:10971000A2F5C040012B80B206D1D6F804330B422B
:1097200002D0FFF787FE0C430432AA424FEA410100
:10973000EDD1534B1B68012B0AD14FF4BE70FFF7DC
:1097400079FE4FF0A04344F00044D3F81035039362
:1097500014F0FF0F1AD04B4F00250126344210D0D1
:10976000AB0003F1804303F5C043D3F81005D3F8F1
:10977000101557F82530C0F30420C1F3014103B19F
:1097800098470135082D4FEA4606E7D1002C6EDADE
:1097900000224FF0FF33CDE904233A4F4FF0000A87
:1097A00056464FF0A04907EB0A0393F95040631C5B
:1097B00046D0E4B2012224F0C00504F0070B02FAFF
:1097C0000BFBEB0806AAD11811F8042C12EA0B0FB8
:1097D00036D07A19A40992F9302057F82280B8F1CE
:1097E000000F0AD1032C2BD10DF1100C1CF8030033
:1097F00040EA0B000CF8030001E0032CF4D01F2D0D
:1098000003D90191FFF730FE019911F80C1C05F501
:10981000E07311EA0B0F59F82330C3F3014320D052
:10982000022B0DD1032C05D121462846FFF724FE3B
:109830000136F6B2B8F1000F02D021462846C047E3
:109840000AF1010ABAF1040FADD186B14FF0A0437D
:10985000039AD3F810359A4209D00393049B0593D9
:109860009CE7032BECD1032CE4D10221DDE707B008
:10987000BDE8F08F006100400060004020610040C2
:109880007C610040F8AE002010B5054C22681AB982
:109890000449512003F028F82368BDE81040184718
:1098A00054AF00200647030037B50D4630B90F49C5
:1098B000772003F019F8002003B030BD0C4B98421C
:1098C000F9D102A8002300F8013DFDF7A5FB094BE3
:1098D0001C7914B901221D601A719DF80700FDF76B
:1098E000CBFB002CE7D01120E6E700BF06470300C2
:1098F0000020004054AF002018B906499B2002F018
:10990000F3BF054B984201BF044B00221A601A7145
:10991000704700BF064703000020004054AF0020FE
:109920000023435082B043580193019B02B070471B
:1099300070B5D0F8103105460C4653B14FF488711C
:10994000FFF7EEFF63795A0703D523680BB10120B7
:109950009847D5F814315BB14FF48A712846FFF768
:10996000DFFF63791B0703D523680BB102209847FB
:10997000D5F81C315BB128464FF48E71FFF7D0FF4C
:10998000607910F0100002D1236803B19847D5F830
:10999000043163B14FF482712846FFF7C1FF012300
:1099A000237123681BB10320BDE87040184770BDC8
:1099B00001490248FFF7BCBF5CAF002000C0014076
:1099C00001490248FFF7B4BF64AF00200010024015
:1099D00001490248FFF7ACBF6CAF002000200240F5
:1099E00000F1804000F5E040002382B0036003688E
:1099F0000193019B02B07047F0B5514B514C1B686D
:109A000085B0DBB14FF4827094F82E20FFF7E8FFA9
:109A100012B194F82F30A3B1636802932389ADF893
:109A20000C30E36800218DF80410002B44D123741E
:109A3000236801A89847002384F82F3094F82E302B
:109A400003B3414B1B68EBB14FF48070FFF7C8FFC5
:109A500094F82D20638B91B28B4238D95B1A2189FF
:109A60009BB26383CB1A616801EB4301374BC3F8A8
:109A70002C16C3F830264FF48270FFF7B1FF344B39
:109A800001221A60334B1B685BB14FF48870FFF7FB
:109A9000A7FF002304A82374022300F80C3D2368C9
:109AA00098472D4B1B6813B34FF48A70FFF798FF4C
:109AB0000023237405B0F0BD208B60836360208198
:109AC000E160002AB4D1214B01221A60B0E7D2D163
:109AD000E368012184F82F103BB1002161831B4909
:109AE000C1F82C36C1F83026C5E76383C3E7666941
:109AF0004FF000470125002EDCD0B6FA86F227FA97
:109B000002F34632920026EA030602F1804303F58F
:109B1000E0431B68002BEED01046FFF761FFA2F573
:109B20008C72D30882F00402C2F380028DF80830F0
:109B30008DF804508DF80920236801A89847DAE7CA
:109B40000471004074AF00200071004000700040BC
:109B500004700040107100401471004002494FF43D
:109B6000F37002F0C1BE00BF463C03001F2810B5D1
:109B7000044601D9FFF7F2FF012303FA04F44FF082
:109B8000A043C3F80C4510BD1F2810B5044601D9E9
:109B9000FFF7E4FF012303FA04F44FF0A043C3F8F6
:109BA000084510BD13B54FF04023D3F818310BB35F
:109BB000114B124C00221A601B680193019B236811
:109BC00023B90F494FF4277002F08EFEE07FFF2883
:109BD00003D0A37F5BB1FFF7C9FF00236377237234
:109BE000D4E90031074802B0BDE810401847FFF73C
:109BF000CBFFF2E702B010BD18410040A4AF002037
:109C000063470300ACAF00202DE9F74F8146CDE953
:109C100000230C4619B97D49AD2002F065FE99F884
:109C200004607B4F242303FB06FB07EB0B0A9AF827
:109C30001C10002940F0E480D9F8005075492846EE
:109C4000FFF732FE8046002840F0DD80009B47F899
:109C50000B30019BCAF80430237B2078012B00F2E3
:109C6000BD80FFF783FF94F800A0BAF11F0F01D960
:109C7000FFF774FF0AF5E07A4FF0A043012243F8A2
:109C80002A2094F801A0BAF1FF0F00F0AA805046F4
:109C9000FFF76CFFBAF11F0FD34601D9FFF75EFF44
:109CA0000AF5E07A4FF0A043032243F82A20A37874
:109CB000FF2B00F099801F2B9A4603D90093FFF7E2
:109CC0004DFF009B03F5E0734FF0A042042142F8E2
:109CD0002310242303FB0673A27883F82020E27864
:109CE000DA77E078FF2817D02379002B7FD0FFF7B1
:109CF0003DFFE3781F2B03D90093FFF72FFF009B55
:109D000003F5E0734FF0A042032142F8231024230F
:109D100003FB067322799A772378C5F80835C5F8CE
:109D20000CB5C5F810A5A368C5F82435637B227B64
:109D3000003318BF0123022A5CD0032A5DD0012A18
:109D400001D143F00203C5F85435A379C5F8C035F5
:109D500024237343FB5813B14022C5F80423072280
:109D6000C5F800257BB3D9F8003064794FEA133A7F
:109D7000A31E012B4FFA8AF506D9631F022B03D9C4
:109D800025496B2002F0B0FD002DACBF05F160430A
:109D9000224B4FEA4414B8BF0AF00F0AE4B2AABF3C
:109DA00003F5614303F80A4083F80043D9F8003013
:109DB0001B0B5AB2012103F01F0301FA03F35209EE
:109DC000174941F82230242303FB067600237377DA
:109DD00001233377404603B0BDE8F08FFFF7D4FE90
:109DE00041E74FF0FF3B62E74FF0FF3A71E7FFF7C3
:109DF000CBFE7EE743F00403A5E743F00603A2E7AA
:109E00004FF00808E6E74FF01108E3E76347030067
:109E1000A4AF0020A59B0200AF47030014ED00E0B3
:109E200000E100E02DE9F341584F0679242303FBBC
:109E3000067380461B7F0D46144623B9544940F2F1
:109E4000322002F051FD2B6833B96B6823B15049C1
:109E500040F2332002F048FDAB6833B9EB6823B120
:109E60004B494FF40D7002F03FFD98F804302BB9C8
:109E7000EB68FF2B02D86B68FF2B04D9444940F2F2
:109E8000372002F031FD24237343FA18517F002953
:109E900079D1FB5823B114F0140F04BF0123537779
:109EA00095E80F004FF0240C0CFB067C0CF10C0E17
:109EB0008EE80F009CF81F00FF2804D09CF81E308D
:109EC000C3B1FFF761FE2A6822B102F06043B3F12B
:109ED000005F06D1AB6883B103F06043B3F1005F6C
:109EE0000BD0242303FB067600237377102002B0E7
:109EF000BDE8F081FFF73AFEE5E7D8F80030696881
:109F0000C3F84425C3F84815D5E90212C3F834153F
:109F1000C3F838250022C3F81821D3F8182101927C
:109F2000019A14F0010218BF0122C3F8502514F061
:109F3000020218BF0122C3F8402522075CBF01229C
:109F40001A6124227243BA5892B9D3F81821002A10
:109F5000FBD0242303FB0676F07FFF2803D0B47FD9
:109F60001CB1FFF703FE0020C1E7FFF70DFEFAE783
:109F700014F004004FF0400202D0C3F80823F2E7C7
:109F8000C3F80423B3E71120B1E700BFA4AF00205A
:109F9000634703002DE9F743002406460F4600F50A
:109FA000A0754FF48038A14604F150002B68800062
:109FB00080B26BB1D6F8043308FA04F21A4207D023
:109FC000C5F800902B680193019BD7E900319847B1
:109FD0000134042C05F10405E6D103B0BDE8F0839B
:109FE0002DE9F347544B0779154602689A42044617
:109FF0000E4603D15149482002F076FC1EB94F4964
:10A000004A2002F071FC1DB94C494B2002F06CFC57
:10A010004B4A0C2303FB072390461B7A002B40F08E
:10A0200089802368444A93420FD002F580529342BC
:10A030000BD002F58052934207D002F58032934252
:10A0400003D002F58052934202D1B378032B03D997
:10A050003A495F2002F048FC0C237B4308EB0302E3
:10A0600048F80350736853600022154660792168F0
:10A07000D3B2984202F1010254D8F578AB1E4FEAF0
:10A08000113A012B4FFA8AF906D96B1F022B03D91B
:10A090002C496B2002F028FCB9F1000FAEBF09F18A
:10A0A00060430AF00F03284A28484FEA4515EDB2ED
:10A0B000AABF03F56143D55483F8005323681B0BF3
:10A0C00059B24909012203F01F0302FA03F340F8D1
:10A0D000213020687378D0F8041503F0030321F0D1
:10A0E00003010B43C0F804352068B378D0F8081595
:10A0F00003F0030321F003010B43C0F80835206887
:10A100003378D0F8101503F00F0321F00F010B4343
:10A11000C0F810350C2303FB078700203A7202B009
:10A12000BDE8F0879B0003F5A073CD50CB58019399
:10A13000019B9BE70820F2E700800040F8470300FE
:10A14000C8AF0020AF47030014ED00E000E100E0DD
:10A1500001490248FFF71EBFC8AF00200080004041
:10A1600001490248FFF716BFD4AF0020009000401D
:10A170000023435082B043580193019B02B07047C3
:10A18000F0B5504C236887B023B94F4940F24520C1
:10A1900002F0AAFB4D4AD2F824311546A3B14FF480
:10A1A00092711046FFF7E4FFD2F8043163B9A36857
:10A1B000C2F808330223A360A368C2F80433012362
:10A1C0001362536107B0F0BDD5F80431002B49D0BC
:10A1D0003F4F3E484FF48271FFF7CAFF0FCF01AEE9
:10A1E0000FC63B68336094F82E307BB1237B012B84
:10A1F0000CBFD5F83C25D5F84C250292022B334BE9
:10A200000CBFD3F83C35D3F84C3503934FF4B07101
:10A210002E48FFF7ADFF4FF4AE712C48FFF7A8FFB3
:10A2200094F8303013B194F82E303BB1274B002214
:10A23000C3F80022A260274AC3F80823234AD2F8B1
:10A24000C434C2F8C4349A0736D501238DF80030DF
:10A2500094F830300BB984F82F30D4E900316846D7
:10A260009847AFE74FF4A4711848FFF781FF237BAD
:10A2700083B9174F0FCF01AE0FC63B68336094F818
:10A280003030002BDAD1C5F80032A360114BC5F88D
:10A290000833D3E74FF40073C5F8003240F20223CD
:10A2A000A36003F1CE73C5F80833A368C5F804337F
:10A2B0000123AB602B6285E713F0040318BF022370
:10A2C000C4E700BFE0AF00204B480300003000406F
:10A2D000ECAF002002029C012DE9F74F8046934627
:10A2E00001930C4619B95049A92002F0FDFAD4E9AE
:10A2F00000239A4203D14C49AA2002F0F5FA98F8BB
:10A3000004704A4E342303FB07FA06EB0A0999F856
:10A310002D20002A40F083804549D8F80000FFF73F
:10A32000C3FA054600287CD146F80AB0019BC9F85B
:10A330000800C9F8043089F8300089F82F00637BE1
:10A3400089F83230D4F80090B9F11F0F04D9394997
:10A350004FF4F37002F0C8FA4FF0A04309F5E0792A
:10A3600040F20C6243F82920D4F804A0BAF11F0F80
:10A37000994604D92F494FF4F37002F0B5FA0AF563
:10A38000E07A40F20C6349F82A30D4E90012D8F898
:10A390000030C3F80815C3F80C25A268C3F82425BB
:10A3A00034237B43F35883B3D8F80030247B4FEA3F
:10A3B000133AA31E012B4FFA8AF906D9631F022B09
:10A3C00003D91D496B2002F08FFAB9F1000FACBF21
:10A3D00009F16043194B4FEA4414B8BF0AF00F0A61
:10A3E000E4B2AABF03F5614303F80A4083F80043CF
:10A3F000D8F800301B0B5AB2012103F01F0301FAF9
:10A4000003F352090E4941F82230342303FB076657
:10A41000012386F82D30284603B0BDE8F08F0825CB
:10A42000F9E71125F7E700BF4B480300E0AF002034
:10A4300081A10200463C0300AF47030014ED00E099
:10A4400000E100E070B50D4D0479342202FB0452A6
:10A45000064692F82D20012A04D0094940F2111035
:10A4600002F042FA33680622C3F80025342303FBC6
:10A470000454022384F82D3070BD00BFE0AF0020EB
:10A480004B48030070B5114D0479342202FB04528D
:10A49000064692F82D2022B90D494FF48E7002F035
:10A4A00023FA3422336802FB04540021094AA160D4
:10A4B000C3F80823D3F8002222F4BC52C3F80022C8
:10A4C000C3F80015012384F82D3070BDE0AF0020E3
:10A4D0004B48030002029C01F8B5294D047934234E
:10A4E00003FB0453064693F82D301BB92549F82089
:10A4F00002F0FAF934236343EB5863B133681B0B62
:10A500005AB20121520903F01F0301FA03F320326A
:10A510001D4941F822303046FFF7B4FF3068FFF79D
:10A52000EBF9342303FB045393F8323003BB336855
:10A53000D3F808751F2F04D914494FF4F37002F0B3
:10A54000D3F94FF0A04307F5E077022243F8272024
:10A550003268D2F80C751F2F1E4604D90B494FF4F0
:10A56000F37002F0C1F907F5E077022346F82730CF
:10A57000342303FB0454002384F82D30F8BD00BFBE
:10A58000E0AF00204B48030000E100E0463C030040
:10A590002DE9F843037904460D4690462BB94B68E4
:10A5A000FF2B02D88B68FF2B04D9B6494FF4F87003
:10A5B00002F09AF92779B44E34237B43F3583BB920
:10A5C0002B78022B04D1AF494FF4FB7002F08CF9C9
:10A5D00034237B43F3583BB92B78032B04D1A9498F
:10A5E00040F2F71002F080F9EB6803F06043B3F13A
:10A5F000005F03D010221046BDE8F8832468A34B07
:10A60000C4F808334FF0340C0CFB076C9CF82F3067
:10A610002BB1DCF80830C4F804331122EBE718F052
:10A62000140F0CBF012300238CF82F30A946B9E882
:10A630000F000CF10C0EAEE80F00D9F80030CEF888
:10A640000030C8F300138CF830306B78C4F88835CC
:10A650004FF482712046FFF78BFD4FF49271FFF7A4
:10A6600087FD18F0010318BF0123C4F8503518F016
:10A67000020318BF0123C4F840352B78032B00F2E6
:10A68000E080DFE803F0A0C8810218F0100F04D0CA
:10A690007C4940F2711002F027F918F0080F04D03D
:10A6A00078494FF4B97002F01FF918F0040F04D084
:10A6B000744940F2731002F017F92B6903F06043FC
:10A6C000B3F1005F96D14FF48073C4F800326B6829
:10A6D000EA68C4F844252046C4F848354FF4A87108
:10A6E000FFF746FD4FF4B071FFF742FD4FF4A47140
:10A6F000FFF73EFD01232362A360D4F85031002B05
:10A70000FBD04FF4A8712046FFF732FDAB682A69F1
:10A71000C4F84425C4F84835342303FB07635C4A76
:10A720009A604FF482730821002218F0080F04D1B8
:10A73000287803281CBF0120605034217943701809
:10A740007158002940F082800125234419680029AE
:10A7500000F089803421D4F8C434C4F8C43401FB37
:10A760000766002186F82F10002B3FF444AF13F04A
:10A77000020F48F2012208BF032213F0040F48F22F
:10A78000022318BF1A4636E76B68EA68C4F8442506
:10A79000C4F848352B6903F06042B2F1005F7FF4E2
:10A7A00029AFAA68C4F834354FF48453C4F8382567
:10A7B000C4F80032342303FB076340F202229A609C
:10A7C00001232362ADE76B68EA68C4F8442518F0FA
:10A7D000200FC4F848354FF0340310D003FB076353
:10A7E0004FF48072C4F80022294A9A604FF4A47191
:10A7F000FFF7BEFC4FF4A4730122226293E74FF4EB
:10A80000007203FB0763C4F8002240F202229A6040
:10A810004FF48273F0E76B68EA68C4F83425C4F833
:10A8200038354FF48053C4F80032342303FB0763F8
:10A8300040F202229A600123236200214FF48273C6
:10A8400072E74FF48273082107226EE718F0040FB5
:10A850001CBF4FF400738360342303FB0766B368A7
:10A86000C4F80433C7E6D4F8241100293FF46EAFCE
:10A870004FF492712046FFF77BFC25624FF4827300
:10A88000656162E74B480300E0AF002002029C01D3
:10A89000000204000023435082B043580193019BFF
:10A8A00002B070470A4610B54FF48E71FFF7F2FF01
:10A8B000136A9168C95C136A01331362C0F81C15EE
:10A8C00010BD08B502464FF492710068FFF7E2FF31
:10A8D0004FF484711068FFF7DDFF136801221A60DE
:10A8E00008BD10B58B690A464FF4847123B9FFF790
:10A8F000D1FFD0F8183510BDFFF7CCFF536AD168EF
:10A90000D0F81805C854536A01335362F3E70000C6
:10A9100002494FF4F37001F0E7BF00BF463C03006B
:10A920001FB501238DF80030044BCDE90110D3E9A8
:10A9300000126846904705B05DF804FB14B0002093
:10A9400030B54D4AD2F8043313F4007F85B0154674
:10A950004FD0D2F82431002B4BD04FF492711046D7
:10A96000FFF798FF4FF40173C2F80833434B93F895
:10A97000291009B9012151603F4902228DF80020B8
:10A98000D1F88024C1F8802403929A690292DA688F
:10A9900001920022C3E906226846D3E900129047DB
:10A9A0003548D0F81C315BB134490A6A4B699A4288
:10A9B0000A464CD291F82830002B48D1FFF772FF9D
:10A9C0002D4AD2F8443193B14FF4A2711046FFF7EB
:10A9D00061FF2A4B93F8291009B1012111609A698E
:10A9E0002AB100229A61586AD968FFF799FF05B029
:10A9F00030BDD5F804335B07D2D5D5F80831002B2C
:10AA0000CED01E4C1C482146FFF76BFF636AA2693B
:10AA10009A422346C4D1E26952B12369E168E360F6
:10AA20000023606AA261E3616362FFF779FFB7E721
:10AA300094F829200AB901226A600F4A4FF4017183
:10AA4000C2F8081300229A61586AD968EDE74FF4FA
:10AA50008E710948FFF71EFF51690029B0D000230D
:10AA6000029191688DF80030019153616846D2E9F6
:10AA700000139847A4E700BF0020004014B0002056
:10AA80002DE9F84F054692460C4619B97749AA2098
:10AA900001F02AFF764B2E792C2202FB06329846D3
:10AAA00092F82A20002A40F0DD8072492868FEF7DB
:10AAB000FBFE0746002840F0D780D4F80090B9F19B
:10AAC000FF3F18D0B9F11F0F01D9FFF721FF4FF059
:10AAD000A043012202FA09F2C3F80825D4F800B015
:10AAE000BBF11F0F994601D9FFF712FF0BF5E07B71
:10AAF000032349F82B30D4F80490B9F1FF3F0BD071
:10AB0000B9F11F0F01D9FFF703FF09F5E0794FF005
:10AB1000A043002243F829202B68A269C3F824250A
:10AB2000217D637D2A680B43C2F86C35D4E900218E
:10AB30002B68C3F81415C3F80C25237D012B35D1E0
:10AB4000D4F80890B9F1FF3F0BD0B9F11F0F01D92C
:10AB5000FFF7DEFE09F5E0794FF0A043002243F84D
:10AB60002920D4F80C90B9F1FF3F18D0B9F11F0F8C
:10AB700001D9FFF7CDFE4FF0A043012202FA09F2FE
:10AB8000C3F80825D4F80CB0BBF11F0F994601D9C2
:10AB9000FFF7BEFE0BF5E07B032349F82B30D4E929
:10ABA00002212B68C3F80815C3F810252C23734322
:10ABB00008EB0302C2F804A0226948F80320BAF1A6
:10ABC000000F3CD04FF48E712868247FFFF762FE9F
:10ABD0004FF4A2712868FFF75DFE2B68264AC3F880
:10ABE00004232B684FEA133AA31E012B4FFA8AF96C
:10ABF00006D9631F022B03D920496B2001F074FE94
:10AC0000B9F1000FACBF09F160431D4B4FEA44148A
:10AC1000B8BF0AF00F0AE4B2AABF03F5614303F814
:10AC20000A4083F800432B681B0B5AB2012103F042
:10AC30001F0301FA03F35209124941F822302B682D
:10AC40000422C3F800252C2303FB06830022C3E95A
:10AC5000062283F829205A61012283F82A203846E7
:10AC6000BDE8F88F0827FAE71127F8E79C480300AA
:10AC700014B0002041A9020080000200AF47030089
:10AC800014ED00E000E100E02DE9F84F344E90F8BB
:10AC900004802C2303FB0863074693F82A30012B1A
:10ACA0008A46934604D02F4940F2151001F01CFE4D
:10ACB000BAF1000F04D12B494FF48B7001F014FE50
:10ACC000BBF1000F04D1274940F2171001F00CFE30
:10ACD0003B792C2404FB03635D69002D3BD108FB09
:10ACE00004694FF48E71C9F82050C9F814B0C9F83E
:10ACF00008A089F828503868FFF7CCFD3B6801228E
:10AD00009A6049463868FFF7CDFDD9F804304C46C3
:10AD10001BBB3D68226A63699A4211D33B68D3F832
:10AD20001C21002AFBD00122DA6000202C2303FB27
:10AD3000086600237361BDE8F88F94F8283043B9A2
:10AD4000D5F81C31002BF8D049462846FFF7AAFD5C
:10AD5000E0E70F20EAE71120EDE72846EBE700BF28
:10AD600014B000209C4803002DE9F843474E0579B4
:10AD70002C2303FB0563074693F82A30012B8846F2
:10AD8000144604D0424940F2691001F0ADFDB8F11B
:10AD9000000F04D13E494FF4B57001F0A5FD24B970
:10ADA0003B4940F26B1001F09FFD2C2303FB056330
:10ADB000596821B13B684FF40172C3F808232C2372
:10ADC00003FB05639A6952B1DA69002A3FD021B1C9
:10ADD0003B684FF40172C3F80423112035E09C61F5
:10ADE000C3F80C805A62DA612C2303FB056393F8E5
:10ADF00029301BB912B93846FFF763FD4FF02C0913
:10AE000009FB05683868D8F80430002B35D14FF4B9
:10AE1000A271FFF73FFDC1463868D0F82431D0F861
:10AE20000821D0F84441BAB90CB9002BF4D02C2237
:10AE300002FB05650022AA6123BB2CBB95F82910F3
:10AE40003B680122B9B11A600020BDE8F883C3F85D
:10AE50001080DC610122C7E7002BE8D1002CE6D18D
:10AE60004946FFF73EFDD8F82430D8F818209A421A
:10AE7000D2D82346DBE75A60E6E74FF40173C0F807
:10AE80000433E1E70320E0E70F20DEE714B0002001
:10AE90009C48030070B50279084C2C2505FB024242
:10AEA000064692F829303BB9FFF70BFD337905FBD5
:10AEB0000343012283F8292070BD00BF14B0002095
:10AEC0000023435082B043580193019B02B0704766
:10AED00002494FF4F37001F007BD00BF463C030088
:10AEE0001FB501238DF80030044BCDE90110D3E9E3
:10AEF00000126846904705B05DF804FB40B00020A2
:10AF00007FB5374AD2F82461002E48D010464FF45E
:10AF10009271FFF7D5FF02238DF80030D2F880340C
:10AF2000C2F880340393D2F83C3502932D4BDA6893
:10AF300001920022C3E906226846D3E90012904735
:10AF4000274AD2F844317BB14FF4A2711046FFF783
:10AF5000B7FF244B996939B10021C3E90611D968BB
:10AF6000D2F83C05FFF7BCFF1D4AD2F82031A3B14F
:10AF70004FF490711046FFF7A3FF1A4B596961B166
:10AF8000D2F84C150291002299688DF800200191A9
:10AF90005A616846D3E90012904704B070BDD2F8F8
:10AFA0001031002BCCD04FF488711046FFF788FF8A
:10AFB0000C4BD2F83C0599698842C1D1DC69D9684B
:10AFC00064B1D2F8005225F02005C2F800521A6987
:10AFD0009C61DA60DE61FFF783FFB1E79C61FAE70D
:10AFE0000020004040B000202DE9F84F0546924671
:10AFF0000C4619B97B49CD2001F076FC7A4B2E79AD
:10B00000242202FB0632984692F82020002A40F0C3
:10B01000E58076492868FEF747FC0746002840F09F
:10B02000DF80D4F80090B9F1FF3F18D0B9F11F0FBD
:10B0300001D9FFF74DFF4FF0A043012202FA09F2B8
:10B04000C3F80825D4F800B0BBF11F0F994601D909
:10B05000FFF73EFF0BF5E07B032349F82B30D4F8D4
:10B060000490B9F1FF3F0BD0B9F11F0F01D9FFF7E1
:10B070002FFF09F5E0794FF0A043002243F8292083
:10B080002B68A269C3F82425217D637D2A680B43C0
:10B09000C2F86C35D4E900122B68C3F80C15C3F85C
:10B0A0001425237D012B35D1D4F80890B9F1FF3F49
:10B0B0000BD0B9F11F0F01D9FFF70AFF09F5E079AD
:10B0C0004FF0A043002243F82920D4F80C90B9F1A6
:10B0D000FF3F18D0B9F11F0F01D9FFF7F9FE4FF06C
:10B0E000A043012202FA09F2C3F80825D4F80CB0F3
:10B0F000BBF11F0F994601D9FFF7EAFE0BF5E07B84
:10B10000032349F82B30D4E902212B68C3F8081532
:10B11000C3F810252423734308EB0302C2F804A0EC
:10B12000226948F80320BAF1000F46D04FF4887125
:10B130002868247FFFF7C4FE4FF490712868FFF75A
:10B14000BFFE4FF492712868FFF7BAFE4FF4A27168
:10B150002868FFF7B5FE2B68254AC3F804232B683F
:10B160004FEA133AA31E012B4FFA8AF906D9631F3F
:10B17000022B03D91F496B2001F0B6FBB9F1000F78
:10B18000ACBF09F160431C4B4FEA4414B8BF0AF04E
:10B190000F0AE4B2AABF03F5614303F80A4083F83B
:10B1A00000432B681B0B5AB2012103F01F0301FA65
:10B1B00003F35209114941F822302B680822C3F8E1
:10B1C0000025242303FB06830022C3E906225A61DB
:10B1D000012283F820203846BDE8F88F0827FAE7D7
:10B1E0001127F8E7ED48030040B0002001AF02004E
:10B1F00010030200AF47030014ED00E000E100E09F
:10B200002DE9F843364E0779242303FB07630446F0
:10B2100093F82030012B8846914604D031494FF4F1
:10B22000927001F061FBB8F1000F04D12D4940F29A
:10B23000251001F059FBB9F1000F04D129494FF451
:10B24000937001F051FB237913B9B9F1FF0F04D9C1
:10B25000244940F2271001F047FB08F06043B3F1A6
:10B26000005F37D12379242505FB03635A69002A3F
:10B2700032D105FB07654FF49071C5F81490C5F8FD
:10B2800008802068FFF71CFE4FF4AC712068FFF7C0
:10B2900017FE23686969A868C3F84405C3F8481510
:10B2A0002368012199606B68C3B92268D2F8201124
:10B2B000D2F8583149B9002BF8D00F20242303FBD2
:10B2C000076600237361BDE8F883002B14BF0F20CD
:10B2D0000020F3E71020F6E71120F4E71046F2E72C
:10B2E00040B00020ED4803002DE9F041484E0479BC
:10B2F000242303FB0463054693F82030012B884682
:10B30000174604D043494FF4B77001F0EDFAB8F195
:10B31000000F04D13F4940F26F1001F0E5FA27B960
:10B320003C494FF4B87001F0DFFA2B790BB9FF2FCD
:10B3300004D9384940F2711001F0D6FA08F06043A0
:10B34000B3F1005F61D1242303FB0463596821B189
:10B350002B684FF40472C3F80823242303FB04630F
:10B360009A6952B1DA69002A3DD021B12B684FF4B5
:10B370000472C3F80423112033E09F61C3F80C80EA
:10B38000DA614FF488712868FFF79AFD4FF4A271D3
:10B390002868FFF795FD2B68C3F83485C3F8387526
:10B3A0002B682ABB01221A602A792B68242101FB11
:10B3B0000261496819BBD3F81041D3F84411D3F89E
:10B3C000240114B909B90028F5D0242303FB02662F
:10B3D0000023984214BF032018469942B36118BF56
:10B3E0000F20BDE8F081C3F81080DF610122C8E7BB
:10B3F000D3F8002242F02002C3F80022D4E74FF431
:10B400000472C3F804230020EBE71020E9E700BF33
:10B4100040B00020ED4803006DDF704779DF7047D2
:10B420007DDF704764DF70472DE9F74F0C9CBDF856
:10B4300034B02788002580468A4691462E46B8F8C3
:10B440000020B2420BDC35B12288013AD21B92B205
:10B45000FF2A39D8DA55002003B0BDE8F08FD8F8BC
:10B46000042052F82600019000220DF1030101A8EA
:10B47000FFF7D8FF0028EFD19DF803204A4521D1DE
:10B480002288002D14BF0020022002EB0901014494
:10B49000594519DC3DB9013292B2228003F802A06D
:10B4A00022880132228022880DF103011A4401A86A
:10B4B000FFF7B8FF0028CFD121889DF803200A4468
:10B4C000228001250136BAE70C20C5E72DE9F341BA
:10B4D000089CBDF824501746CDE9004502220646D7
:10B4E000FFF7A2FF48B9102239463046CDE908459A
:10B4F00002B0BDE8F041FFF797BF02B0BDE8F081B0
:10B500002DE9F04F00231688138090F82D3085B078
:10B5100007460D46144653B3082E01D80C2026E1E9
:10B5200002A8FFF779FF002840F021811388082244
:10B53000CA54238801339BB21B222380CA5420881B
:10B54000013080B2208006220DF10901284401F06B
:10B550007FFE23889DF8082006339BB212F0FE027E
:10B5600018BF01222380EA54238801332380BB784B
:10B57000FBB123880433B342D0D802A8FFF74EFFB3
:10B58000002840F0F48023880322EA542388013302
:10B590009BB219222380EA542388BDF80820013386
:10B5A0009BB2E9182380EA54120A4A7023880233B6
:10B5B0002380FA789AB12388D91CB142AED80221EF
:10B5C000E954238801339BB201212380E954238865
:10B5D0000B449BB22380EA5423880B4423807A686F
:10B5E000AAB12388D91CB14298D8022192F900202F
:10B5F000E954238801339BB20A212380E95423882C
:10B6000001339BB22380EA542388013323803B8992
:10B61000002B40F0A0803B8A5BB1CDE900462B4671
:10B620000722032107F11000FFF750FF002840F028
:10B630009E803B8B5BB1CDE900462B461522142141
:10B6400007F11800FFF742FF002840F090803A6AA7
:10B65000002A40F08F80D7F82480B8F1000F30D056
:10B66000B8F804302188981C8A1C0244B2423FF684
:10B6700055AFFE283FF652AF03336B542388013396
:10B680009BB2FF222380EA54238801339BB223809C
:10B69000B8F80020EA54E918120A4A7020880230EB
:10B6A00080B22080B8F804205AB1D8F808100029D8
:10B6B0006AD0284401F0CCFD2388B8F80420134454
:10B6C000238097F82C30002B40F0998038780028A0
:10B6D0004DD03B88012B57D021888A1CB2423FF6BF
:10B6E0001DAF012805D17B7802330B449E42FFF445
:10B6F00015AF023E761A04A9B6B221F8086DA81853
:10B70000FFF78EFE98BB3978BDF80820022900F0BB
:10B71000BB807B78934202D3B24240F2B3800129CE
:10B7200040F0B4809BB29E42C0F0B080ADF80830CB
:10B730000821BDF80830FE2B3FF6F0AE2288013319
:10B74000AB542288013292B22280A9542288134439
:10B75000238000200BE0CDE900462B460622022183
:10B7600007F10800FFF7B2FE00283FF454AF05B020
:10B77000BDE8F08FB4F800C00CF10603B3423FF609
:10B78000CDAE1188052901D80720F0E76FF4486E87
:10B7900001EB0E039BB24FF27D3E7345F4D9538803
:10B7A000052BF1D96FF44860181880B27045EBD9B9
:10B7B0004FF6FF70814203D0834201D09942E3D813
:10B7C000052305F80C30238801339BB21221238016
:10B7D000E954238801339BB223801188E954E81887
:10B7E000090A4170238802339BB223805288EA54AD
:10B7F000E918120A4A702388023323802BE7BB6AB8
:10B80000002BC1D04FF000094FF00C0A4FF0160B7F
:10B8100097F82C305FFA89F293427FF657AFB96AF6
:10B820000AFB02F201EB0208B8F80430981CFE286B
:10B830003FF674AE208803332B54238801339BB228
:10B84000238005F803B0238801339BB223808A5AF2
:10B85000EA54E918120A4A702088023080B2208027
:10B86000B8F804205AB1D8F8081000298CD0284420
:10B8700001F0EEFC2388B8F804201344238009F17A
:10B880000109C5E7092154E7B242FBD9ADF80860C8
:10B890004EE770B5C0B14AB116880024B44203D354
:10B8A00005196D789D4208D0A14201D800200BE017
:10B8B000055D01352C44A4B2F0E7A142F6D9A31CE2
:10B8C0001380005D013880B270BD37B502AC002333
:10B8D00024F8023D134622460546FFF7DAFF10B171
:10B8E000BDF80600284403B030BD72DF704773DF37
:10B8F000704738B5012204460D46B0F83812D0F82A
:10B900003402FFF7E2FF00B1057004F13C0204F5D8
:10B910000D7104F15400BDE83840FFF7E6BF80F830
:10B9200030107047F8B504460F46002975D000283E
:10B9300073D091F87A301BB191F89830002B6ED10A
:10B94000D7F8A030042B6AD0D7F89C30042B66D0EF
:10B950004FF0000C84F802C007F178060FCE251DC9
:10B960000FC50FCE0FC596E8070085E8070084F8DD
:10B9700030C0D7F8A4306363D7F8A830A3634FF67C
:10B98000FF7504F50D73C4F84432A4F84852072239
:10B99000614604F24A2001F0F5FC23780BB984F8E3
:10B9A000545094F8243004F15501C4F8341283B390
:10B9B000EE23A4F8383204F50E723846FFF7A0FDE6
:10B9C00030BB94F8243004F24311C4F83C1213B392
:10B9D000EE23A4F8403204F5107207F13C00FFF7A3
:10B9E0008FFDA8B9A269A4F84820012362692064E8
:10B9F00084F850006264014684F8513084F83C3089
:10BA000004F13C0204F15400FFF76FFF00B923700A
:10BA1000F8BD1F23CDE71F23DBE70E20F8E7072043
:10BA2000F6E7F8B5077804460D46002F00F00581CB
:10BA300000F24A26A17007220021304601F0A2FC44
:10BA4000E38813B1A378012B04D0E3794BB1A37839
:10BA5000022B06D1636BA3B1012284F85122082086
:10BA60009847334604F5147113F8012F12B999421F
:10BA7000FAD117466B1E032B53D8DFE803F0050BF2
:10BA80000F1284F85132ECE7A3791BB194F82430FB
:10BA900003B95FB9E3790BB1002F44D1237A002BAE
:10BAA00043D1637A002B0CBF00250425636BA5707E
:10BAB000002B3CD0033D012D39D86279002A36D0C5
:10BAC00094F85222002A32D184F85422012284F8B8
:10BAD00053220720984704F13C05182200212846EC
